{
  "_format": "hh-sol-artifact-1",
  "contractName": "ERC1155TestToken",
  "sourceName": "contracts/ERC1155TestToken.sol",
  "abi": [
    {
      "inputs": [
        {
          "internalType": "address",
          "name": "initialOwner",
          "type": "address"
        }
      ],
      "stateMutability": "nonpayable",
      "type": "constructor"
    },
    {
      "inputs": [
        {
          "internalType": "address",
          "name": "sender",
          "type": "address"
        },
        {
          "internalType": "uint256",
          "name": "balance",
          "type": "uint256"
        },
        {
          "internalType": "uint256",
          "name": "needed",
          "type": "uint256"
        },
        {
          "internalType": "uint256",
          "name": "tokenId",
          "type": "uint256"
        }
      ],
      "name": "ERC1155InsufficientBalance",
      "type": "error"
    },
    {
      "inputs": [
        {
          "internalType": "address",
          "name": "approver",
          "type": "address"
        }
      ],
      "name": "ERC1155InvalidApprover",
      "type": "error"
    },
    {
      "inputs": [
        {
          "internalType": "uint256",
          "name": "idsLength",
          "type": "uint256"
        },
        {
          "internalType": "uint256",
          "name": "valuesLength",
          "type": "uint256"
        }
      ],
      "name": "ERC1155InvalidArrayLength",
      "type": "error"
    },
    {
      "inputs": [
        {
          "internalType": "address",
          "name": "operator",
          "type": "address"
        }
      ],
      "name": "ERC1155InvalidOperator",
      "type": "error"
    },
    {
      "inputs": [
        {
          "internalType": "address",
          "name": "receiver",
          "type": "address"
        }
      ],
      "name": "ERC1155InvalidReceiver",
      "type": "error"
    },
    {
      "inputs": [
        {
          "internalType": "address",
          "name": "sender",
          "type": "address"
        }
      ],
      "name": "ERC1155InvalidSender",
      "type": "error"
    },
    {
      "inputs": [
        {
          "internalType": "address",
          "name": "operator",
          "type": "address"
        },
        {
          "internalType": "address",
          "name": "owner",
          "type": "address"
        }
      ],
      "name": "ERC1155MissingApprovalForAll",
      "type": "error"
    },
    {
      "inputs": [
        {
          "internalType": "address",
          "name": "owner",
          "type": "address"
        }
      ],
      "name": "OwnableInvalidOwner",
      "type": "error"
    },
    {
      "inputs": [
        {
          "internalType": "address",
          "name": "account",
          "type": "address"
        }
      ],
      "name": "OwnableUnauthorizedAccount",
      "type": "error"
    },
    {
      "anonymous": false,
      "inputs": [
        {
          "indexed": true,
          "internalType": "address",
          "name": "account",
          "type": "address"
        },
        {
          "indexed": true,
          "internalType": "address",
          "name": "operator",
          "type": "address"
        },
        {
          "indexed": false,
          "internalType": "bool",
          "name": "approved",
          "type": "bool"
        }
      ],
      "name": "ApprovalForAll",
      "type": "event"
    },
    {
      "anonymous": false,
      "inputs": [
        {
          "indexed": true,
          "internalType": "address",
          "name": "previousOwner",
          "type": "address"
        },
        {
          "indexed": true,
          "internalType": "address",
          "name": "newOwner",
          "type": "address"
        }
      ],
      "name": "OwnershipTransferred",
      "type": "event"
    },
    {
      "anonymous": false,
      "inputs": [
        {
          "indexed": true,
          "internalType": "address",
          "name": "operator",
          "type": "address"
        },
        {
          "indexed": true,
          "internalType": "address",
          "name": "from",
          "type": "address"
        },
        {
          "indexed": true,
          "internalType": "address",
          "name": "to",
          "type": "address"
        },
        {
          "indexed": false,
          "internalType": "uint256[]",
          "name": "ids",
          "type": "uint256[]"
        },
        {
          "indexed": false,
          "internalType": "uint256[]",
          "name": "values",
          "type": "uint256[]"
        }
      ],
      "name": "TransferBatch",
      "type": "event"
    },
    {
      "anonymous": false,
      "inputs": [
        {
          "indexed": true,
          "internalType": "address",
          "name": "operator",
          "type": "address"
        },
        {
          "indexed": true,
          "internalType": "address",
          "name": "from",
          "type": "address"
        },
        {
          "indexed": true,
          "internalType": "address",
          "name": "to",
          "type": "address"
        },
        {
          "indexed": false,
          "internalType": "uint256",
          "name": "id",
          "type": "uint256"
        },
        {
          "indexed": false,
          "internalType": "uint256",
          "name": "value",
          "type": "uint256"
        }
      ],
      "name": "TransferSingle",
      "type": "event"
    },
    {
      "anonymous": false,
      "inputs": [
        {
          "indexed": false,
          "internalType": "string",
          "name": "value",
          "type": "string"
        },
        {
          "indexed": true,
          "internalType": "uint256",
          "name": "id",
          "type": "uint256"
        }
      ],
      "name": "URI",
      "type": "event"
    },
    {
      "inputs": [
        {
          "internalType": "address",
          "name": "account",
          "type": "address"
        },
        {
          "internalType": "uint256",
          "name": "id",
          "type": "uint256"
        }
      ],
      "name": "balanceOf",
      "outputs": [
        {
          "internalType": "uint256",
          "name": "",
          "type": "uint256"
        }
      ],
      "stateMutability": "view",
      "type": "function"
    },
    {
      "inputs": [
        {
          "internalType": "address[]",
          "name": "accounts",
          "type": "address[]"
        },
        {
          "internalType": "uint256[]",
          "name": "ids",
          "type": "uint256[]"
        }
      ],
      "name": "balanceOfBatch",
      "outputs": [
        {
          "internalType": "uint256[]",
          "name": "",
          "type": "uint256[]"
        }
      ],
      "stateMutability": "view",
      "type": "function"
    },
    {
      "inputs": [
        {
          "internalType": "address",
          "name": "account",
          "type": "address"
        },
        {
          "internalType": "uint256",
          "name": "id",
          "type": "uint256"
        },
        {
          "internalType": "uint256",
          "name": "value",
          "type": "uint256"
        }
      ],
      "name": "burn",
      "outputs": [],
      "stateMutability": "nonpayable",
      "type": "function"
    },
    {
      "inputs": [
        {
          "internalType": "address",
          "name": "account",
          "type": "address"
        },
        {
          "internalType": "uint256[]",
          "name": "ids",
          "type": "uint256[]"
        },
        {
          "internalType": "uint256[]",
          "name": "values",
          "type": "uint256[]"
        }
      ],
      "name": "burnBatch",
      "outputs": [],
      "stateMutability": "nonpayable",
      "type": "function"
    },
    {
      "inputs": [
        {
          "internalType": "uint256",
          "name": "id",
          "type": "uint256"
        }
      ],
      "name": "exists",
      "outputs": [
        {
          "internalType": "bool",
          "name": "",
          "type": "bool"
        }
      ],
      "stateMutability": "view",
      "type": "function"
    },
    {
      "inputs": [
        {
          "internalType": "address",
          "name": "account",
          "type": "address"
        },
        {
          "internalType": "address",
          "name": "operator",
          "type": "address"
        }
      ],
      "name": "isApprovedForAll",
      "outputs": [
        {
          "internalType": "bool",
          "name": "",
          "type": "bool"
        }
      ],
      "stateMutability": "view",
      "type": "function"
    },
    {
      "inputs": [
        {
          "internalType": "address",
          "name": "account",
          "type": "address"
        },
        {
          "internalType": "uint256",
          "name": "id",
          "type": "uint256"
        },
        {
          "internalType": "uint256",
          "name": "amount",
          "type": "uint256"
        },
        {
          "internalType": "bytes",
          "name": "data",
          "type": "bytes"
        }
      ],
      "name": "mint",
      "outputs": [],
      "stateMutability": "nonpayable",
      "type": "function"
    },
    {
      "inputs": [
        {
          "internalType": "address",
          "name": "to",
          "type": "address"
        },
        {
          "internalType": "uint256[]",
          "name": "ids",
          "type": "uint256[]"
        },
        {
          "internalType": "uint256[]",
          "name": "amounts",
          "type": "uint256[]"
        },
        {
          "internalType": "bytes",
          "name": "data",
          "type": "bytes"
        }
      ],
      "name": "mintBatch",
      "outputs": [],
      "stateMutability": "nonpayable",
      "type": "function"
    },
    {
      "inputs": [],
      "name": "owner",
      "outputs": [
        {
          "internalType": "address",
          "name": "",
          "type": "address"
        }
      ],
      "stateMutability": "view",
      "type": "function"
    },
    {
      "inputs": [],
      "name": "renounceOwnership",
      "outputs": [],
      "stateMutability": "nonpayable",
      "type": "function"
    },
    {
      "inputs": [
        {
          "internalType": "address",
          "name": "from",
          "type": "address"
        },
        {
          "internalType": "address",
          "name": "to",
          "type": "address"
        },
        {
          "internalType": "uint256[]",
          "name": "ids",
          "type": "uint256[]"
        },
        {
          "internalType": "uint256[]",
          "name": "values",
          "type": "uint256[]"
        },
        {
          "internalType": "bytes",
          "name": "data",
          "type": "bytes"
        }
      ],
      "name": "safeBatchTransferFrom",
      "outputs": [],
      "stateMutability": "nonpayable",
      "type": "function"
    },
    {
      "inputs": [
        {
          "internalType": "address",
          "name": "from",
          "type": "address"
        },
        {
          "internalType": "address",
          "name": "to",
          "type": "address"
        },
        {
          "internalType": "uint256",
          "name": "id",
          "type": "uint256"
        },
        {
          "internalType": "uint256",
          "name": "value",
          "type": "uint256"
        },
        {
          "internalType": "bytes",
          "name": "data",
          "type": "bytes"
        }
      ],
      "name": "safeTransferFrom",
      "outputs": [],
      "stateMutability": "nonpayable",
      "type": "function"
    },
    {
      "inputs": [
        {
          "internalType": "address",
          "name": "operator",
          "type": "address"
        },
        {
          "internalType": "bool",
          "name": "approved",
          "type": "bool"
        }
      ],
      "name": "setApprovalForAll",
      "outputs": [],
      "stateMutability": "nonpayable",
      "type": "function"
    },
    {
      "inputs": [
        {
          "internalType": "string",
          "name": "newuri",
          "type": "string"
        }
      ],
      "name": "setURI",
      "outputs": [],
      "stateMutability": "nonpayable",
      "type": "function"
    },
    {
      "inputs": [
        {
          "internalType": "bytes4",
          "name": "interfaceId",
          "type": "bytes4"
        }
      ],
      "name": "supportsInterface",
      "outputs": [
        {
          "internalType": "bool",
          "name": "",
          "type": "bool"
        }
      ],
      "stateMutability": "view",
      "type": "function"
    },
    {
      "inputs": [],
      "name": "totalSupply",
      "outputs": [
        {
          "internalType": "uint256",
          "name": "",
          "type": "uint256"
        }
      ],
      "stateMutability": "view",
      "type": "function"
    },
    {
      "inputs": [
        {
          "internalType": "uint256",
          "name": "id",
          "type": "uint256"
        }
      ],
      "name": "totalSupply",
      "outputs": [
        {
          "internalType": "uint256",
          "name": "",
          "type": "uint256"
        }
      ],
      "stateMutability": "view",
      "type": "function"
    },
    {
      "inputs": [
        {
          "internalType": "address",
          "name": "newOwner",
          "type": "address"
        }
      ],
      "name": "transferOwnership",
      "outputs": [],
      "stateMutability": "nonpayable",
      "type": "function"
    },
    {
      "inputs": [
        {
          "internalType": "uint256",
          "name": "",
          "type": "uint256"
        }
      ],
      "name": "uri",
      "outputs": [
        {
          "internalType": "string",
          "name": "",
          "type": "string"
        }
      ],
      "stateMutability": "view",
      "type": "function"
    }
  ],
  "bytecode": "0x608060405234801561001057600080fd5b50604051611b99380380611b9983398101604081905261002f916100ea565b604080516020810190915260008152819061004981610088565b506001600160a01b03811661007857604051631e4fbdf760e01b81526000600482015260240160405180910390fd5b61008181610098565b5050610277565b600261009482826101b9565b5050565b600380546001600160a01b038381166001600160a01b0319831681179093556040519116919082907f8be0079c531659141344cd1fd0a4f28419497f9722a3daafe3b4186f6b6457e090600090a35050565b6000602082840312156100fc57600080fd5b81516001600160a01b038116811461011357600080fd5b9392505050565b634e487b7160e01b600052604160045260246000fd5b600181811c9082168061014457607f821691505b60208210810361016457634e487b7160e01b600052602260045260246000fd5b50919050565b601f8211156101b457806000526020600020601f840160051c810160208510156101915750805b601f840160051c820191505b818110156101b1576000815560010161019d565b50505b505050565b81516001600160401b038111156101d2576101d261011a565b6101e6816101e08454610130565b8461016a565b6020601f82116001811461021a57600083156102025750848201515b600019600385901b1c1916600184901b1784556101b1565b600084815260208120601f198516915b8281101561024a578785015182556020948501946001909201910161022a565b50848210156102685786840151600019600387901b60f8161c191681555b50505050600190811b01905550565b611913806102866000396000f3fe608060405234801561001057600080fd5b50600436106101205760003560e01c80636b20c454116100ad578063bd85b03911610071578063bd85b0391461026f578063e985e9c51461028f578063f242432a146102a2578063f2fde38b146102b5578063f5298aca146102c857600080fd5b80636b20c45414610213578063715018a614610226578063731133e91461022e5780638da5cb5b14610241578063a22cb4651461025c57600080fd5b806318160ddd116100f457806318160ddd146101a35780631f7fdffa146101ab5780632eb2c2d6146101be5780634e1273f4146101d15780634f558e79146101f157600080fd5b8062fdd58e1461012557806301ffc9a71461014b57806302fe53051461016e5780630e89341c14610183575b600080fd5b610138610133366004610fc3565b6102db565b6040519081526020015b60405180910390f35b61015e610159366004611003565b610303565b6040519015158152602001610142565b61018161017c3660046110c8565b610353565b005b610196610191366004611118565b610367565b6040516101429190611177565b600554610138565b6101816101b936600461123a565b6103fb565b6101816101cc3660046112dc565b610415565b6101e46101df36600461138f565b610481565b6040516101429190611492565b61015e6101ff366004611118565b600090815260046020526040902054151590565b6101816102213660046114a5565b61054d565b6101816105b1565b61018161023c36600461151c565b6105c5565b6003546040516001600160a01b039091168152602001610142565b61018161026a366004611564565b6105d9565b61013861027d366004611118565b60009081526004602052604090205490565b61015e61029d3660046115a0565b6105e8565b6101816102b03660046115d3565b610616565b6101816102c336600461162b565b610675565b6101816102d6366004611646565b6106b0565b6000818152602081815260408083206001600160a01b03861684529091529020545b92915050565b60006001600160e01b03198216636cdb3d1360e11b148061033457506001600160e01b031982166303a24d0760e21b145b806102fd57506301ffc9a760e01b6001600160e01b03198316146102fd565b61035b6106e6565b61036481610713565b50565b60606002805461037690611679565b80601f01602080910402602001604051908101604052809291908181526020018280546103a290611679565b80156103ef5780601f106103c4576101008083540402835291602001916103ef565b820191906000526020600020905b8154815290600101906020018083116103d257829003601f168201915b50505050509050919050565b6104036106e6565b61040f8484848461071f565b50505050565b336001600160a01b0386168114801590610436575061043486826105e8565b155b1561046c5760405163711bec9160e11b81526001600160a01b038083166004830152871660248201526044015b60405180910390fd5b6104798686868686610757565b505050505050565b606081518351146104b25781518351604051635b05999160e01b815260048101929092526024820152604401610463565b600083516001600160401b038111156104cd576104cd611027565b6040519080825280602002602001820160405280156104f6578160200160208202803683370190505b50905060005b845181101561054557602080820286010151610520906020808402870101516102db565b828281518110610532576105326116b3565b60209081029190910101526001016104fc565b509392505050565b6001600160a01b038316331480159061056d575061056b83336105e8565b155b156105a157335b60405163711bec9160e11b81526001600160a01b0391821660048201529084166024820152604401610463565b6105ac8383836107be565b505050565b6105b96106e6565b6105c36000610804565b565b6105cd6106e6565b61040f84848484610856565b6105e43383836108b3565b5050565b6001600160a01b03918216600090815260016020908152604080832093909416825291909152205460ff1690565b336001600160a01b0386168114801590610637575061063586826105e8565b155b156106685760405163711bec9160e11b81526001600160a01b03808316600483015287166024820152604401610463565b6104798686868686610949565b61067d6106e6565b6001600160a01b0381166106a757604051631e4fbdf760e01b815260006004820152602401610463565b61036481610804565b6001600160a01b03831633148015906106d057506106ce83336105e8565b155b156106db5733610574565b6105ac8383836109d7565b6003546001600160a01b031633146105c35760405163118cdaa760e01b8152336004820152602401610463565b60026105e48282611710565b6001600160a01b03841661074957604051632bfa23e760e11b815260006004820152602401610463565b61040f600085858585610a3b565b6001600160a01b03841661078157604051632bfa23e760e11b815260006004820152602401610463565b6001600160a01b0385166107aa57604051626a0d4560e21b815260006004820152602401610463565b6107b78585858585610a3b565b5050505050565b6001600160a01b0383166107e757604051626a0d4560e21b815260006004820152602401610463565b6105ac836000848460405180602001604052806000815250610a3b565b600380546001600160a01b038381166001600160a01b0319831681179093556040519116919082907f8be0079c531659141344cd1fd0a4f28419497f9722a3daafe3b4186f6b6457e090600090a35050565b6001600160a01b03841661088057604051632bfa23e760e11b815260006004820152602401610463565b60408051600180825260208201869052818301908152606082018590526080820190925290610479600087848487610a3b565b6001600160a01b0382166108dc5760405162ced3e160e81b815260006004820152602401610463565b6001600160a01b03838116600081815260016020908152604080832094871680845294825291829020805460ff191686151590811790915591519182527f17307eab39ab6107e8899845ad3d59bd9653f200f220920489ca2b5937696c31910160405180910390a3505050565b6001600160a01b03841661097357604051632bfa23e760e11b815260006004820152602401610463565b6001600160a01b03851661099c57604051626a0d4560e21b815260006004820152602401610463565b604080516001808252602082018690528183019081526060820185905260808201909252906109ce8787848487610a3b565b50505050505050565b6001600160a01b038316610a0057604051626a0d4560e21b815260006004820152602401610463565b604080516001808252602082018590528183019081526060820184905260a082019092526000608082018181529192916107b7918791859085905b610a4785858585610a8e565b6001600160a01b038416156107b75782513390600103610a805760208481015190840151610a79838989858589610a9a565b5050610479565b610479818787878787610bbe565b61040f84848484610ca7565b6001600160a01b0384163b156104795760405163f23a6e6160e01b81526001600160a01b0385169063f23a6e6190610ade90899089908890889088906004016117ce565b6020604051808303816000875af1925050508015610b19575060408051601f3d908101601f19168201909252610b1691810190611813565b60015b610b82573d808015610b47576040519150601f19603f3d011682016040523d82523d6000602084013e610b4c565b606091505b508051600003610b7a57604051632bfa23e760e11b81526001600160a01b0386166004820152602401610463565b805181602001fd5b6001600160e01b0319811663f23a6e6160e01b146109ce57604051632bfa23e760e11b81526001600160a01b0386166004820152602401610463565b6001600160a01b0384163b156104795760405163bc197c8160e01b81526001600160a01b0385169063bc197c8190610c029089908990889088908890600401611830565b6020604051808303816000875af1925050508015610c3d575060408051601f3d908101601f19168201909252610c3a91810190611813565b60015b610c6b573d808015610b47576040519150601f19603f3d011682016040523d82523d6000602084013e610b4c565b6001600160e01b0319811663bc197c8160e01b146109ce57604051632bfa23e760e11b81526001600160a01b0386166004820152602401610463565b610cb384848484610d93565b6001600160a01b038416610d33576000805b8351811015610d195760208181028481018201519086018201516000908152600490925260408220805491928392610cfe90849061188e565b90915550610d0e9050818461188e565b925050600101610cc5565b508060056000828254610d2c919061188e565b9091555050505b6001600160a01b03831661040f576000805b8351811015610d82576020818102848101820151908601820151600090815260049092526040909120805482900390559190910190600101610d45565b506005805491909103905550505050565b8051825114610dc25781518151604051635b05999160e01b815260048101929092526024820152604401610463565b3360005b8351811015610ec8576020818102858101820151908501909101516001600160a01b03881615610e79576000828152602081815260408083206001600160a01b038c16845290915290205481811015610e52576040516303dee4c560e01b81526001600160a01b038a166004820152602481018290526044810183905260648101849052608401610463565b6000838152602081815260408083206001600160a01b038d16845290915290209082900390555b6001600160a01b03871615610ebe576000828152602081815260408083206001600160a01b038b16845290915281208054839290610eb890849061188e565b90915550505b5050600101610dc6565b508251600103610f495760208301516000906020840151909150856001600160a01b0316876001600160a01b0316846001600160a01b03167fc3d58168c5ae7397731d063d5bbf3d657854427343f4c083240f7aacaa2d0f628585604051610f3a929190918252602082015260400190565b60405180910390a450506107b7565b836001600160a01b0316856001600160a01b0316826001600160a01b03167f4a39dc06d4c0dbc64b70af90fd698a233a518aa5d07e595d983b8c0526c8f7fb8686604051610f989291906118af565b60405180910390a45050505050565b80356001600160a01b0381168114610fbe57600080fd5b919050565b60008060408385031215610fd657600080fd5b610fdf83610fa7565b946020939093013593505050565b6001600160e01b03198116811461036457600080fd5b60006020828403121561101557600080fd5b813561102081610fed565b9392505050565b634e487b7160e01b600052604160045260246000fd5b604051601f8201601f191681016001600160401b038111828210171561106557611065611027565b604052919050565b6000806001600160401b0384111561108757611087611027565b50601f8301601f191660200161109c8161103d565b9150508281528383830111156110b157600080fd5b828260208301376000602084830101529392505050565b6000602082840312156110da57600080fd5b81356001600160401b038111156110f057600080fd5b8201601f8101841361110157600080fd5b6111108482356020840161106d565b949350505050565b60006020828403121561112a57600080fd5b5035919050565b6000815180845260005b818110156111575760208185018101518683018201520161113b565b506000602082860101526020601f19601f83011685010191505092915050565b6020815260006110206020830184611131565b60006001600160401b038211156111a3576111a3611027565b5060051b60200190565b600082601f8301126111be57600080fd5b81356111d16111cc8261118a565b61103d565b8082825260208201915060208360051b8601019250858311156111f357600080fd5b602085015b838110156112105780358352602092830192016111f8565b5095945050505050565b600082601f83011261122b57600080fd5b6110208383356020850161106d565b6000806000806080858703121561125057600080fd5b61125985610fa7565b935060208501356001600160401b0381111561127457600080fd5b611280878288016111ad565b93505060408501356001600160401b0381111561129c57600080fd5b6112a8878288016111ad565b92505060608501356001600160401b038111156112c457600080fd5b6112d08782880161121a565b91505092959194509250565b600080600080600060a086880312156112f457600080fd5b6112fd86610fa7565b945061130b60208701610fa7565b935060408601356001600160401b0381111561132657600080fd5b611332888289016111ad565b93505060608601356001600160401b0381111561134e57600080fd5b61135a888289016111ad565b92505060808601356001600160401b0381111561137657600080fd5b6113828882890161121a565b9150509295509295909350565b600080604083850312156113a257600080fd5b82356001600160401b038111156113b857600080fd5b8301601f810185136113c957600080fd5b80356113d76111cc8261118a565b8082825260208201915060208360051b8501019250878311156113f957600080fd5b6020840193505b828410156114225761141184610fa7565b825260209384019390910190611400565b945050505060208301356001600160401b0381111561144057600080fd5b61144c858286016111ad565b9150509250929050565b600081518084526020840193506020830160005b8281101561148857815186526020958601959091019060010161146a565b5093949350505050565b6020815260006110206020830184611456565b6000806000606084860312156114ba57600080fd5b6114c384610fa7565b925060208401356001600160401b038111156114de57600080fd5b6114ea868287016111ad565b92505060408401356001600160401b0381111561150657600080fd5b611512868287016111ad565b9150509250925092565b6000806000806080858703121561153257600080fd5b61153b85610fa7565b9350602085013592506040850135915060608501356001600160401b038111156112c457600080fd5b6000806040838503121561157757600080fd5b61158083610fa7565b91506020830135801515811461159557600080fd5b809150509250929050565b600080604083850312156115b357600080fd5b6115bc83610fa7565b91506115ca60208401610fa7565b90509250929050565b600080600080600060a086880312156115eb57600080fd5b6115f486610fa7565b945061160260208701610fa7565b9350604086013592506060860135915060808601356001600160401b0381111561137657600080fd5b60006020828403121561163d57600080fd5b61102082610fa7565b60008060006060848603121561165b57600080fd5b61166484610fa7565b95602085013595506040909401359392505050565b600181811c9082168061168d57607f821691505b6020821081036116ad57634e487b7160e01b600052602260045260246000fd5b50919050565b634e487b7160e01b600052603260045260246000fd5b601f8211156105ac57806000526020600020601f840160051c810160208510156116f05750805b601f840160051c820191505b818110156107b757600081556001016116fc565b81516001600160401b0381111561172957611729611027565b61173d816117378454611679565b846116c9565b6020601f82116001811461177157600083156117595750848201515b600019600385901b1c1916600184901b1784556107b7565b600084815260208120601f198516915b828110156117a15787850151825560209485019460019092019101611781565b50848210156117bf5786840151600019600387901b60f8161c191681555b50505050600190811b01905550565b6001600160a01b03868116825285166020820152604081018490526060810183905260a06080820181905260009061180890830184611131565b979650505050505050565b60006020828403121561182557600080fd5b815161102081610fed565b6001600160a01b0386811682528516602082015260a06040820181905260009061185c90830186611456565b828103606084015261186e8186611456565b905082810360808401526118828185611131565b98975050505050505050565b808201808211156102fd57634e487b7160e01b600052601160045260246000fd5b6040815260006118c26040830185611456565b82810360208401526118d48185611456565b9594505050505056fea26469706673582212205226c7d2d3a1a9a0d58801c0bdb4defc97037a87f4f1e1ee51b0ce26be4599b664736f6c634300081b0033",
  "linkReferences": {},
  "deployedLinkReferences": {}
}