{
  "_format": "hh-sol-artifact-1",
  "contractName": "ERC721TestToken",
  "sourceName": "contracts/ERC721TestToken.sol",
  "abi": [
    {
      "inputs": [
        {
          "internalType": "address",
          "name": "initialOwner",
          "type": "address"
        }
      ],
      "stateMutability": "nonpayable",
      "type": "constructor"
    },
    {
      "inputs": [],
      "name": "ERC721EnumerableForbiddenBatchMint",
      "type": "error"
    },
    {
      "inputs": [
        {
          "internalType": "address",
          "name": "sender",
          "type": "address"
        },
        {
          "internalType": "uint256",
          "name": "tokenId",
          "type": "uint256"
        },
        {
          "internalType": "address",
          "name": "owner",
          "type": "address"
        }
      ],
      "name": "ERC721IncorrectOwner",
      "type": "error"
    },
    {
      "inputs": [
        {
          "internalType": "address",
          "name": "operator",
          "type": "address"
        },
        {
          "internalType": "uint256",
          "name": "tokenId",
          "type": "uint256"
        }
      ],
      "name": "ERC721InsufficientApproval",
      "type": "error"
    },
    {
      "inputs": [
        {
          "internalType": "address",
          "name": "approver",
          "type": "address"
        }
      ],
      "name": "ERC721InvalidApprover",
      "type": "error"
    },
    {
      "inputs": [
        {
          "internalType": "address",
          "name": "operator",
          "type": "address"
        }
      ],
      "name": "ERC721InvalidOperator",
      "type": "error"
    },
    {
      "inputs": [
        {
          "internalType": "address",
          "name": "owner",
          "type": "address"
        }
      ],
      "name": "ERC721InvalidOwner",
      "type": "error"
    },
    {
      "inputs": [
        {
          "internalType": "address",
          "name": "receiver",
          "type": "address"
        }
      ],
      "name": "ERC721InvalidReceiver",
      "type": "error"
    },
    {
      "inputs": [
        {
          "internalType": "address",
          "name": "sender",
          "type": "address"
        }
      ],
      "name": "ERC721InvalidSender",
      "type": "error"
    },
    {
      "inputs": [
        {
          "internalType": "uint256",
          "name": "tokenId",
          "type": "uint256"
        }
      ],
      "name": "ERC721NonexistentToken",
      "type": "error"
    },
    {
      "inputs": [
        {
          "internalType": "address",
          "name": "owner",
          "type": "address"
        },
        {
          "internalType": "uint256",
          "name": "index",
          "type": "uint256"
        }
      ],
      "name": "ERC721OutOfBoundsIndex",
      "type": "error"
    },
    {
      "inputs": [
        {
          "internalType": "address",
          "name": "owner",
          "type": "address"
        }
      ],
      "name": "OwnableInvalidOwner",
      "type": "error"
    },
    {
      "inputs": [
        {
          "internalType": "address",
          "name": "account",
          "type": "address"
        }
      ],
      "name": "OwnableUnauthorizedAccount",
      "type": "error"
    },
    {
      "anonymous": false,
      "inputs": [
        {
          "indexed": true,
          "internalType": "address",
          "name": "owner",
          "type": "address"
        },
        {
          "indexed": true,
          "internalType": "address",
          "name": "approved",
          "type": "address"
        },
        {
          "indexed": true,
          "internalType": "uint256",
          "name": "tokenId",
          "type": "uint256"
        }
      ],
      "name": "Approval",
      "type": "event"
    },
    {
      "anonymous": false,
      "inputs": [
        {
          "indexed": true,
          "internalType": "address",
          "name": "owner",
          "type": "address"
        },
        {
          "indexed": true,
          "internalType": "address",
          "name": "operator",
          "type": "address"
        },
        {
          "indexed": false,
          "internalType": "bool",
          "name": "approved",
          "type": "bool"
        }
      ],
      "name": "ApprovalForAll",
      "type": "event"
    },
    {
      "anonymous": false,
      "inputs": [
        {
          "indexed": true,
          "internalType": "address",
          "name": "previousOwner",
          "type": "address"
        },
        {
          "indexed": true,
          "internalType": "address",
          "name": "newOwner",
          "type": "address"
        }
      ],
      "name": "OwnershipTransferred",
      "type": "event"
    },
    {
      "anonymous": false,
      "inputs": [
        {
          "indexed": true,
          "internalType": "address",
          "name": "from",
          "type": "address"
        },
        {
          "indexed": true,
          "internalType": "address",
          "name": "to",
          "type": "address"
        },
        {
          "indexed": true,
          "internalType": "uint256",
          "name": "tokenId",
          "type": "uint256"
        }
      ],
      "name": "Transfer",
      "type": "event"
    },
    {
      "inputs": [
        {
          "internalType": "address",
          "name": "to",
          "type": "address"
        },
        {
          "internalType": "uint256",
          "name": "tokenId",
          "type": "uint256"
        }
      ],
      "name": "approve",
      "outputs": [],
      "stateMutability": "nonpayable",
      "type": "function"
    },
    {
      "inputs": [
        {
          "internalType": "address",
          "name": "owner",
          "type": "address"
        }
      ],
      "name": "balanceOf",
      "outputs": [
        {
          "internalType": "uint256",
          "name": "",
          "type": "uint256"
        }
      ],
      "stateMutability": "view",
      "type": "function"
    },
    {
      "inputs": [
        {
          "internalType": "uint256",
          "name": "tokenId",
          "type": "uint256"
        }
      ],
      "name": "burn",
      "outputs": [],
      "stateMutability": "nonpayable",
      "type": "function"
    },
    {
      "inputs": [
        {
          "internalType": "uint256",
          "name": "tokenId",
          "type": "uint256"
        }
      ],
      "name": "getApproved",
      "outputs": [
        {
          "internalType": "address",
          "name": "",
          "type": "address"
        }
      ],
      "stateMutability": "view",
      "type": "function"
    },
    {
      "inputs": [
        {
          "internalType": "address",
          "name": "owner",
          "type": "address"
        },
        {
          "internalType": "address",
          "name": "operator",
          "type": "address"
        }
      ],
      "name": "isApprovedForAll",
      "outputs": [
        {
          "internalType": "bool",
          "name": "",
          "type": "bool"
        }
      ],
      "stateMutability": "view",
      "type": "function"
    },
    {
      "inputs": [],
      "name": "name",
      "outputs": [
        {
          "internalType": "string",
          "name": "",
          "type": "string"
        }
      ],
      "stateMutability": "view",
      "type": "function"
    },
    {
      "inputs": [],
      "name": "owner",
      "outputs": [
        {
          "internalType": "address",
          "name": "",
          "type": "address"
        }
      ],
      "stateMutability": "view",
      "type": "function"
    },
    {
      "inputs": [
        {
          "internalType": "uint256",
          "name": "tokenId",
          "type": "uint256"
        }
      ],
      "name": "ownerOf",
      "outputs": [
        {
          "internalType": "address",
          "name": "",
          "type": "address"
        }
      ],
      "stateMutability": "view",
      "type": "function"
    },
    {
      "inputs": [],
      "name": "renounceOwnership",
      "outputs": [],
      "stateMutability": "nonpayable",
      "type": "function"
    },
    {
      "inputs": [
        {
          "internalType": "address",
          "name": "to",
          "type": "address"
        },
        {
          "internalType": "uint256",
          "name": "tokenId",
          "type": "uint256"
        }
      ],
      "name": "safeMint",
      "outputs": [],
      "stateMutability": "nonpayable",
      "type": "function"
    },
    {
      "inputs": [
        {
          "internalType": "address",
          "name": "from",
          "type": "address"
        },
        {
          "internalType": "address",
          "name": "to",
          "type": "address"
        },
        {
          "internalType": "uint256",
          "name": "tokenId",
          "type": "uint256"
        }
      ],
      "name": "safeTransferFrom",
      "outputs": [],
      "stateMutability": "nonpayable",
      "type": "function"
    },
    {
      "inputs": [
        {
          "internalType": "address",
          "name": "from",
          "type": "address"
        },
        {
          "internalType": "address",
          "name": "to",
          "type": "address"
        },
        {
          "internalType": "uint256",
          "name": "tokenId",
          "type": "uint256"
        },
        {
          "internalType": "bytes",
          "name": "data",
          "type": "bytes"
        }
      ],
      "name": "safeTransferFrom",
      "outputs": [],
      "stateMutability": "nonpayable",
      "type": "function"
    },
    {
      "inputs": [
        {
          "internalType": "address",
          "name": "operator",
          "type": "address"
        },
        {
          "internalType": "bool",
          "name": "approved",
          "type": "bool"
        }
      ],
      "name": "setApprovalForAll",
      "outputs": [],
      "stateMutability": "nonpayable",
      "type": "function"
    },
    {
      "inputs": [
        {
          "internalType": "bytes4",
          "name": "interfaceId",
          "type": "bytes4"
        }
      ],
      "name": "supportsInterface",
      "outputs": [
        {
          "internalType": "bool",
          "name": "",
          "type": "bool"
        }
      ],
      "stateMutability": "view",
      "type": "function"
    },
    {
      "inputs": [],
      "name": "symbol",
      "outputs": [
        {
          "internalType": "string",
          "name": "",
          "type": "string"
        }
      ],
      "stateMutability": "view",
      "type": "function"
    },
    {
      "inputs": [
        {
          "internalType": "uint256",
          "name": "index",
          "type": "uint256"
        }
      ],
      "name": "tokenByIndex",
      "outputs": [
        {
          "internalType": "uint256",
          "name": "",
          "type": "uint256"
        }
      ],
      "stateMutability": "view",
      "type": "function"
    },
    {
      "inputs": [
        {
          "internalType": "address",
          "name": "owner",
          "type": "address"
        },
        {
          "internalType": "uint256",
          "name": "index",
          "type": "uint256"
        }
      ],
      "name": "tokenOfOwnerByIndex",
      "outputs": [
        {
          "internalType": "uint256",
          "name": "",
          "type": "uint256"
        }
      ],
      "stateMutability": "view",
      "type": "function"
    },
    {
      "inputs": [
        {
          "internalType": "uint256",
          "name": "tokenId",
          "type": "uint256"
        }
      ],
      "name": "tokenURI",
      "outputs": [
        {
          "internalType": "string",
          "name": "",
          "type": "string"
        }
      ],
      "stateMutability": "view",
      "type": "function"
    },
    {
      "inputs": [],
      "name": "totalSupply",
      "outputs": [
        {
          "internalType": "uint256",
          "name": "",
          "type": "uint256"
        }
      ],
      "stateMutability": "view",
      "type": "function"
    },
    {
      "inputs": [
        {
          "internalType": "address",
          "name": "from",
          "type": "address"
        },
        {
          "internalType": "address",
          "name": "to",
          "type": "address"
        },
        {
          "internalType": "uint256",
          "name": "tokenId",
          "type": "uint256"
        }
      ],
      "name": "transferFrom",
      "outputs": [],
      "stateMutability": "nonpayable",
      "type": "function"
    },
    {
      "inputs": [
        {
          "internalType": "address",
          "name": "newOwner",
          "type": "address"
        }
      ],
      "name": "transferOwnership",
      "outputs": [],
      "stateMutability": "nonpayable",
      "type": "function"
    }
  ],
  "bytecode": "0x608060405234801561001057600080fd5b506040516117ca3803806117ca83398101604081905261002f91610125565b806040518060400160405280600f81526020016e22a9219b9918aa32b9ba2a37b5b2b760891b81525060405180604001604052806005815260200164544b37323160d81b815250816000908161008591906101f4565b50600161009282826101f4565b5050506001600160a01b0381166100c357604051631e4fbdf760e01b81526000600482015260240160405180910390fd5b6100cc816100d3565b50506102b2565b600a80546001600160a01b038381166001600160a01b0319831681179093556040519116919082907f8be0079c531659141344cd1fd0a4f28419497f9722a3daafe3b4186f6b6457e090600090a35050565b60006020828403121561013757600080fd5b81516001600160a01b038116811461014e57600080fd5b9392505050565b634e487b7160e01b600052604160045260246000fd5b600181811c9082168061017f57607f821691505b60208210810361019f57634e487b7160e01b600052602260045260246000fd5b50919050565b601f8211156101ef57806000526020600020601f840160051c810160208510156101cc5750805b601f840160051c820191505b818110156101ec57600081556001016101d8565b50505b505050565b81516001600160401b0381111561020d5761020d610155565b6102218161021b845461016b565b846101a5565b6020601f821160018114610255576000831561023d5750848201515b600019600385901b1c1916600184901b1784556101ec565b600084815260208120601f198516915b828110156102855787850151825560209485019460019092019101610265565b50848210156102a35786840151600019600387901b60f8161c191681555b50505050600190811b01905550565b611509806102c16000396000f3fe608060405234801561001057600080fd5b50600436106101375760003560e01c80636352211e116100b8578063a14481941161007c578063a144819414610271578063a22cb46514610284578063b88d4fde14610297578063c87b56dd146102aa578063e985e9c5146102bd578063f2fde38b146102d057600080fd5b80636352211e1461022a57806370a082311461023d578063715018a6146102505780638da5cb5b1461025857806395d89b411461026957600080fd5b806323b872dd116100ff57806323b872dd146101cb5780632f745c59146101de57806342842e0e146101f157806342966c68146102045780634f6ccce71461021757600080fd5b806301ffc9a71461013c57806306fdde0314610164578063081812fc14610179578063095ea7b3146101a457806318160ddd146101b9575b600080fd5b61014f61014a366004611123565b6102e3565b60405190151581526020015b60405180910390f35b61016c6102f4565b60405161015b9190611190565b61018c6101873660046111a3565b610386565b6040516001600160a01b03909116815260200161015b565b6101b76101b23660046111d8565b6103af565b005b6008545b60405190815260200161015b565b6101b76101d9366004611202565b6103be565b6101bd6101ec3660046111d8565b61044e565b6101b76101ff366004611202565b6104b3565b6101b76102123660046111a3565b6104d3565b6101bd6102253660046111a3565b6104df565b61018c6102383660046111a3565b610538565b6101bd61024b36600461123f565b610543565b6101b761058b565b600a546001600160a01b031661018c565b61016c61059f565b6101b761027f3660046111d8565b6105ae565b6101b761029236600461125a565b6105c0565b6101b76102a53660046112ac565b6105cb565b61016c6102b83660046111a3565b6105e3565b61014f6102cb366004611390565b610673565b6101b76102de36600461123f565b6106a1565b60006102ee826106df565b92915050565b606060008054610303906113c3565b80601f016020809104026020016040519081016040528092919081815260200182805461032f906113c3565b801561037c5780601f106103515761010080835404028352916020019161037c565b820191906000526020600020905b81548152906001019060200180831161035f57829003601f168201915b5050505050905090565b600061039182610704565b506000828152600460205260409020546001600160a01b03166102ee565b6103ba82823361073d565b5050565b6001600160a01b0382166103ed57604051633250574960e11b8152600060048201526024015b60405180910390fd5b60006103fa83833361074a565b9050836001600160a01b0316816001600160a01b031614610448576040516364283d7b60e01b81526001600160a01b03808616600483015260248201849052821660448201526064016103e4565b50505050565b600061045983610543565b821061048a5760405163295f44f760e21b81526001600160a01b0384166004820152602481018390526044016103e4565b506001600160a01b03919091166000908152600660209081526040808320938352929052205490565b6104ce838383604051806020016040528060008152506105cb565b505050565b6103ba6000823361074a565b60006104ea60085490565b82106105135760405163295f44f760e21b815260006004820152602481018390526044016103e4565b60088281548110610526576105266113fd565b90600052602060002001549050919050565b60006102ee82610704565b60006001600160a01b03821661056f576040516322718ad960e21b8152600060048201526024016103e4565b506001600160a01b031660009081526003602052604090205490565b61059361075f565b61059d600061078c565b565b606060018054610303906113c3565b6105b661075f565b6103ba82826107de565b6103ba3383836107f8565b6105d68484846103be565b6104483385858585610897565b60606105ee82610704565b50600061062160408051808201909152601381527268747470733a2f2f6578616d706c652e636f6d60681b602082015290565b90506000815111610641576040518060200160405280600081525061066c565b8061064b846109c2565b60405160200161065c929190611413565b6040516020818303038152906040525b9392505050565b6001600160a01b03918216600090815260056020908152604080832093909416825291909152205460ff1690565b6106a961075f565b6001600160a01b0381166106d357604051631e4fbdf760e01b8152600060048201526024016103e4565b6106dc8161078c565b50565b60006001600160e01b0319821663780e9d6360e01b14806102ee57506102ee82610a55565b6000818152600260205260408120546001600160a01b0316806102ee57604051637e27328960e01b8152600481018490526024016103e4565b6104ce8383836001610aa5565b6000610757848484610bab565b949350505050565b600a546001600160a01b0316331461059d5760405163118cdaa760e01b81523360048201526024016103e4565b600a80546001600160a01b038381166001600160a01b0319831681179093556040519116919082907f8be0079c531659141344cd1fd0a4f28419497f9722a3daafe3b4186f6b6457e090600090a35050565b6103ba828260405180602001604052806000815250610c78565b6001600160a01b03821661082a57604051630b61174360e31b81526001600160a01b03831660048201526024016103e4565b6001600160a01b03838116600081815260056020908152604080832094871680845294825291829020805460ff191686151590811790915591519182527f17307eab39ab6107e8899845ad3d59bd9653f200f220920489ca2b5937696c31910160405180910390a3505050565b6001600160a01b0383163b156109bb57604051630a85bd0160e11b81526001600160a01b0384169063150b7a02906108d9908890889087908790600401611442565b6020604051808303816000875af1925050508015610914575060408051601f3d908101601f191682019092526109119181019061147f565b60015b61097d573d808015610942576040519150601f19603f3d011682016040523d82523d6000602084013e610947565b606091505b50805160000361097557604051633250574960e11b81526001600160a01b03851660048201526024016103e4565b805181602001fd5b6001600160e01b03198116630a85bd0160e11b146109b957604051633250574960e11b81526001600160a01b03851660048201526024016103e4565b505b5050505050565b606060006109cf83610c90565b600101905060008167ffffffffffffffff8111156109ef576109ef611296565b6040519080825280601f01601f191660200182016040528015610a19576020820181803683370190505b5090508181016020015b600019016f181899199a1a9b1b9c1cb0b131b232b360811b600a86061a8153600a8504945084610a2357509392505050565b60006001600160e01b031982166380ac58cd60e01b1480610a8657506001600160e01b03198216635b5e139f60e01b145b806102ee57506301ffc9a760e01b6001600160e01b03198316146102ee565b8080610ab957506001600160a01b03821615155b15610b7b576000610ac984610704565b90506001600160a01b03831615801590610af55750826001600160a01b0316816001600160a01b031614155b8015610b085750610b068184610673565b155b15610b315760405163a9fbf51f60e01b81526001600160a01b03841660048201526024016103e4565b8115610b795783856001600160a01b0316826001600160a01b03167f8c5be1e5ebec7d5bd14f71427d1e84f3dd0314c0f7b2291e5b200ac8c7c3b92560405160405180910390a45b505b5050600090815260046020526040902080546001600160a01b0319166001600160a01b0392909216919091179055565b600080610bb9858585610d68565b90506001600160a01b038116610c1657610c1184600880546000838152600960205260408120829055600182018355919091527ff3f7a9fe364faab93b216da50a3214154f22a0a2b415b23a84c8169e8b636ee30155565b610c39565b846001600160a01b0316816001600160a01b031614610c3957610c398185610e61565b6001600160a01b038516610c5557610c5084610ee2565b610757565b846001600160a01b0316816001600160a01b031614610757576107578585610f91565b610c828383610fe1565b6104ce336000858585610897565b60008072184f03e93ff9f4daa797ed6e38ed64bf6a1f0160401b8310610ccf5772184f03e93ff9f4daa797ed6e38ed64bf6a1f0160401b830492506040015b6d04ee2d6d415b85acef81000000008310610cfb576d04ee2d6d415b85acef8100000000830492506020015b662386f26fc100008310610d1957662386f26fc10000830492506010015b6305f5e1008310610d31576305f5e100830492506008015b6127108310610d4557612710830492506004015b60648310610d57576064830492506002015b600a83106102ee5760010192915050565b6000828152600260205260408120546001600160a01b0390811690831615610d9557610d95818486611046565b6001600160a01b03811615610dd357610db2600085600080610aa5565b6001600160a01b038116600090815260036020526040902080546000190190555b6001600160a01b03851615610e02576001600160a01b0385166000908152600360205260409020805460010190555b60008481526002602052604080822080546001600160a01b0319166001600160a01b0389811691821790925591518793918516917fddf252ad1be2c89b69c2b068fc378daa952ba7f163c4a11628f55a4df523b3ef91a4949350505050565b6000610e6c83610543565b6000838152600760209081526040808320546001600160a01b0388168452600690925290912091925090818314610ec357600083815260208281526040808320548584528184208190558352600790915290208290555b6000938452600760209081526040808620869055938552525081205550565b600854600090610ef49060019061149c565b60008381526009602052604081205460088054939450909284908110610f1c57610f1c6113fd565b906000526020600020015490508060088381548110610f3d57610f3d6113fd565b6000918252602080832090910192909255828152600990915260408082208490558582528120556008805480610f7557610f756114bd565b6001900381819060005260206000200160009055905550505050565b60006001610f9e84610543565b610fa8919061149c565b6001600160a01b039093166000908152600660209081526040808320868452825280832085905593825260079052919091209190915550565b6001600160a01b03821661100b57604051633250574960e11b8152600060048201526024016103e4565b60006110198383600061074a565b90506001600160a01b038116156104ce576040516339e3563760e11b8152600060048201526024016103e4565b6110518383836110aa565b6104ce576001600160a01b03831661107f57604051637e27328960e01b8152600481018290526024016103e4565b60405163177e802f60e01b81526001600160a01b0383166004820152602481018290526044016103e4565b60006001600160a01b038316158015906107575750826001600160a01b0316846001600160a01b031614806110e457506110e48484610673565b806107575750506000908152600460205260409020546001600160a01b03908116911614919050565b6001600160e01b0319811681146106dc57600080fd5b60006020828403121561113557600080fd5b813561066c8161110d565b60005b8381101561115b578181015183820152602001611143565b50506000910152565b6000815180845261117c816020860160208601611140565b601f01601f19169290920160200192915050565b60208152600061066c6020830184611164565b6000602082840312156111b557600080fd5b5035919050565b80356001600160a01b03811681146111d357600080fd5b919050565b600080604083850312156111eb57600080fd5b6111f4836111bc565b946020939093013593505050565b60008060006060848603121561121757600080fd5b611220846111bc565b925061122e602085016111bc565b929592945050506040919091013590565b60006020828403121561125157600080fd5b61066c826111bc565b6000806040838503121561126d57600080fd5b611276836111bc565b91506020830135801515811461128b57600080fd5b809150509250929050565b634e487b7160e01b600052604160045260246000fd5b600080600080608085870312156112c257600080fd5b6112cb856111bc565b93506112d9602086016111bc565b925060408501359150606085013567ffffffffffffffff8111156112fc57600080fd5b8501601f8101871361130d57600080fd5b803567ffffffffffffffff81111561132757611327611296565b604051601f8201601f19908116603f0116810167ffffffffffffffff8111828210171561135657611356611296565b60405281815282820160200189101561136e57600080fd5b8160208401602083013760006020838301015280935050505092959194509250565b600080604083850312156113a357600080fd5b6113ac836111bc565b91506113ba602084016111bc565b90509250929050565b600181811c908216806113d757607f821691505b6020821081036113f757634e487b7160e01b600052602260045260246000fd5b50919050565b634e487b7160e01b600052603260045260246000fd5b60008351611425818460208801611140565b835190830190611439818360208801611140565b01949350505050565b6001600160a01b038581168252841660208201526040810183905260806060820181905260009061147590830184611164565b9695505050505050565b60006020828403121561149157600080fd5b815161066c8161110d565b818103818111156102ee57634e487b7160e01b600052601160045260246000fd5b634e487b7160e01b600052603160045260246000fdfea26469706673582212202520beac280597d58c7f2fb4a1c1f1de9168529a9cee993e6cb62d190078d65764736f6c634300081b0033",
  "linkReferences": {},
  "deployedLinkReferences": {}
}